:100000000C94A7000C94C4000C94C4000C94C4007D
:100010000C94C4000C94C4000C94C4000C94C40050
:100020000C94C4000C94C4000C94C4000C94C40040
:100030000C94C4000C94C4000C94C4000C94C40030
:100040000C94C4000C94C4000C94C4000C94C40020
:100050000C94C40000407A10F35A00A0724E1809A4
:100060000010A5D4E80000E87648170000E40B541F
:10007000020000CA9A3B000000E1F50500008096EE
:100080009800000040420F000000A0860100000020
:10009000102700000000E8030000000064000000DA
:1000A00000000A00000000000100000000002C76A3
:1000B000D888DC674F0823DFC1DFAE59E1B1B796BE
:1000C000E5E3E453C63AE651997696E8E6C284261B
:1000D000EB898C9B62ED407C6FFCEFBC9C9F40F2F7
:1000E000BAA56FA5F490055A2AF75C936B6CF96773
:1000F0006DC11BFCE0E40D47FEF520E6B500D0ED38
:10010000902E0300943577050080841E080000209F
:100110004E0A000000C80C333333330F986E12833D
:100120001141EF8D2114893BE65516CFFEE6DB1811
:10013000D1844B381BF77C1D901DA4BBE4242032D6
:1001400084725E228100C9F124ECA1E53D271124CF
:100150001FBECFE5D8E0DEBFCDBF11E0A0E6B0E026
:10016000E4EAFDE102C005900D92AE39B107D9F77E
:1001700011E0AEE9B1E001C01D92A93AB107E1F783
:100180000E9493020C94D00E0C940000282F207F24
:1001900022BB929A20EA3FE0F9013197F1F7929859
:1001A000F9013197F1F790E044E0880F991F4A95E3
:1001B000E1F782BB929AC9010197F1F79298C901C0
:1001C0000197F1F7089520E040E45CE9CA01019746
:1001D000F1F72F5F2436D1F70895282F207F22BB17
:1001E00022B3256022BB20EA3FE0F9013197F1F705
:1001F0009298F9013197F1F790E054E0880F991F38
:100200005A95E1F782BB82B3856082BBC901019731
:10021000F1F79298C9010197F1F7089580E69AEEF7
:100220000197F1F712BA12BA81B3806F81BB81B323
:10023000876081BB80E382BB929A20EA3FE0F901AC
:100240003197F1F79298F9013197F1F782BB929AC1
:10025000C9010197F1F79298C9010197F1F780E27E
:1002600082BB929AC9010197F1F79298C90101974F
:10027000F1F788E20E94C6008CE00E94C60080E888
:100280000E94C600089589EC0E94C60080E00E948A
:10029000ED0081E00E94ED0082E00E94ED0083E02D
:1002A0000E94ED0080E80E94C600089581E00E944F
:1002B000C6000895813019F0823051F405C0862FB0
:1002C00081580E94C6000895862F81540E94C6005E
:1002D0000895CF93DF93EA010E945A0103C021964B
:1002E0000E94ED0088818823D1F7DF91CF91089596
:1002F0000F931F93CF93DF93142F052F0E945A0162
:10030000212F302FC901EC0102C00E94ED0089911C
:100310008823D9F7DF91CF911F910F910895809194
:10032000A801813019F481E090E02EC0823019F4E8
:1003300084E090E029C0833019F487E090E024C085
:10034000853019F482E090E01FC0863019F485E012
:1003500090E01AC0873019F488E090E015C088302A
:1003600029F41092A00110929F010895893019F488
:1003700083E090E009C08A3019F486E090E004C080
:100380008B3039F489E090E09093A00180939F0135
:1003900008958D3061F41092A00110929F0181E0C8
:1003A00090E09093A4018093A3018BE229C08E304A
:1003B00061F41092A00110929F0182E090E090936E
:1003C000A4018093A3018DE21BC08F3061F41092D1
:1003D000A00110929F0183E090E09093A40180938C
:1003E000A30188E70DC08031B9F41092A0011092EA
:1003F0009F0184E090E09093A4018093A3018FE299
:100400008093A7018091A5019091A60101969093F8
:10041000A6018093A50108958C3059F41092A00193
:1004200010929F0185E090E09093A4018093A30136
:100430000895843051F41092A00110929F0186E03B
:1004400090E09093A4018093A30108958F929F92CE
:10045000AF92BF92CF92DF92EF92FF920F931F93D2
:10046000CF93DF9380EF84BB8FE085BB4091A101E8
:100470005091A201EE24FF24F0E88F2E912CE0E4AD
:10048000AE2EEFE1BE2E78E0C72ED12CC4010E2C8B
:1004900002C0959587950A94E2F784BB809585BB49
:1004A000C5010197F1F7E701CC0FDD1FCC0FDD1F70
:1004B000CA57DF4F00E010E083B39601002E02C060
:1004C000359527950A94E2F790E028233923232BCA
:1004D00039F488818093A8010E948F0141E050E0A7
:1004E0000F5F1F4F21960430110531F70894E11C6E
:1004F000F11C84E0E816F10449F65093A201409300
:10050000A101DF91CF911F910F91FF90EF90DF90AC
:10051000CF90BF90AF909F908F9008958FEF8ABB40
:1005200087BB14BA08952F923F924F925F926F92B9
:100530007F928F929F92AF92BF92CF92DF92EF9273
:10054000FF920F931F93CF93DF931092A601109207
:10055000A5011092A2011092A1011092A001109287
:100560009F011092A4011092A3018BE28093A70136
:100570008FEF8ABB87BB14BA0E940E018CE00E94E9
:10058000C6008EE991E060E670E00E94EE0981E02D
:1005900062E04EE951E00E94690100E21EE4C801F8
:1005A0000197F1F78EE991E06EE670E00E94EE09A6
:1005B00082E062E04EE951E00E946901C8010197C2
:1005C000F1F700E010E0C0E2DEE48CE10E94C6003A
:1005D000CE010197F1F70F5F1F4F00311105A9F709
:1005E0000E9456018EE991E067E770E00E94EE09F3
:1005F00081E061E04EE951E00E9469014424552404
:10060000FF24EE24AA24BB24650166247724430139
:10061000CEE9D1E0ADE72A2EA0E03A2E0E942602D4
:100620008091A1019091A201019709F014C120913C
:10063000A3013091A40121153105C1F5C601B50111
:100640002AE030E040E050E00E9477095B016C0155
:1006500080919F019091A001A0E0B0E0A80EB91E8A
:10066000CA1EDB1E8DB79EB708970FB6F8949EBFC3
:100670000FBE8DBFEDB7FEB73196ADB7BEB71296C0
:10068000DC93CE93119789E790E093838283A482D1
:10069000B582C682D7820E94F509ADB7BEB718965B
:1006A0000FB6F894BEBF0FBEADBF42C0C9010197DF
:1006B000049708F043C0C401B3012AE030E040E0F1
:1006C00050E00E9477093B014C0180919F0190917D
:1006D000A001A0E0B0E0680E791E8A1E9B1E8DB7B7
:1006E0009EB70E970FB6F8949EBF0FBE8DBFEDB7A5
:1006F000FEB73196ADB7BEB71296DC93CE93119785
:1007000033822282A482B582C682D7828091A701D9
:100710008087118662867386848695860E94F50995
:100720008DB79EB70E960FB6F8949EBF0FBE8DBFC5
:1007300081E061E0AE010E94690189C02530310588
:1007400009F062C08091A7018B3289F4C601B5011E
:100750000E947D077B018C01C401B3010E947D07CB
:100760009B01AC01C801B7010E94AA0538C08D32B7
:1007700089F4C601B5010E947D077B018C01C4018B
:10078000B3010E947D079B01AC01C801B7010E9423
:10079000790525C0883789F4C601B5010E947D0717
:1007A0007B018C01C401B3010E947D079B01AC0158
:1007B000C801B7010E94D70512C08F3299F4C60153
:1007C000B5010E947D077B018C01C401B3010E9429
:1007D0007D079B01AC01C801B7010E94D1062B0126
:1007E000F82EE92E4F2D5E2DB201CA0141E050E0F6
:1007F00022E030E00EE911E00E94CD0982E061E0E4
:10080000A8010E94780123C02630310501F510921D
:10081000A6011092A5010E9456018EE991E067E7BA
:1008200070E00E94EE0981E061E04EE951E00E9433
:1008300069011092A4011092A30144245524FF24BD
:10084000EE24AA24BB246501662477244301109278
:10085000A2011092A1010000E1CEA0E0B0E0E3E32C
:10086000F4E00C949609DC012B01FA019C91923082
:1008700008F439C1EB018881823008F433C1943027
:1008800069F4843009F02FC111969C9111978981E8
:10089000981709F428C1A6E9B0E025C1843009F40D
:1008A00021C18230A9F4923009F01DC19A01AD0135
:1008B00088E0EA010990AE01E90109929E018150A8
:1008C000C1F7E201898111969C918923818308C136
:1008D000923009F407C112962D903C901397EB01CA
:1008E0008A819B811496AD90BD90CD90DC90179736
:1008F000EC80FD800E811F819101281B390BB9010D
:1009000037FF04C066277727621B730B60327105BF
:100910000CF061C0121613066CF537014801062E63
:1009200004C096948794779467940A94D2F721E050
:1009300030E040E050E004C0220F331F441F551F39
:100940006A95D2F721503040404050402E213F213F
:1009500040235123211531054105510521F021E0A6
:1009600030E040E050E079018A01E628F7280829C4
:1009700019293CC0232BD1F1260E371E3501460123
:10098000062E04C096948794779467940A94D2F7BD
:1009900021E030E040E050E004C0220F331F441F4C
:1009A000551F6A95D2F721503040404050402A21CF
:1009B0003B214C215D21211531054105510521F0D7
:1009C00021E030E040E050E059016A01A628B72854
:1009D000C828D9280BC0821593052CF01C01AA2425
:1009E000BB24650103C0EE24FF24870111969C916E
:1009F000D20111968C91981709F445C0992339F0CA
:100A0000A80197012A193B094C095D0906C0A601F6
:100A100095012E193F09400B510B57FD08C011825B
:100A20003382228224833583468357831DC081E02D
:100A300081833382228288279927DC01821B930BD2
:100A4000A40BB50B84839583A683B7830DC0220FB7
:100A5000331F441F551F2483358346835783828168
:100A600093810197938382832481358146815781C5
:100A7000DA01C9010197A109B1098F5F9F4FAF4FFB
:100A8000BF4328F30BC0918333822282EA0CFB1C04
:100A90000C1D1D1DE482F5820683178383E080838D
:100AA000248135814681578157FF1AC0C901AA2781
:100AB00097FDA095BA2F81709070A070B070569578
:100AC000479537952795822B932BA42BB52B8483A1
:100AD0009583A683B78382819381019693838283D2
:100AE000DF0101C0D201CD01CDB7DEB7E2E10C9448
:100AF000B209A0E2B0E0EFE7F5E00C94A209698347
:100B00007A838B839C832D833E834F835887E9E0D0
:100B1000EE2EF12CEC0EFD1ECE010196B7010E94C7
:100B2000FF088E010F5E1F4FCE010596B8010E948F
:100B3000FF088A8991E089278A8BC701B801AE0135
:100B4000475E5F4F0E942D040E942A08A096E6E0AF
:100B50000C94BE09A0E2B0E0E0EBF5E00C94A20931
:100B600069837A838B839C832D833E834F8358874D
:100B7000F9E0EF2EF12CEC0EFD1ECE010196B7012F
:100B80000E94FF088E010F5E1F4FCE010596B8012F
:100B90000E94FF08C701B801AE01475E5F4F0E9487
:100BA0002D040E942A08A096E6E00C94BE09A0E25B
:100BB000B0E0EDEDF5E00C94960969837A838B83C0
:100BC0009C832D833E834F835887CE010196BE01BF
:100BD000675F7F4F0E94FF08CE010596BE016F5EE2
:100BE0007F4F0E94FF089985923088F08989823072
:100BF000C8F0943019F4823051F404C0843029F4E0
:100C0000923081F486E990E0C6C0923049F420E049
:100C10009A858A89981321E02A87CE010996BBC05C
:100C2000823049F420E09A858A89981321E02A8B42
:100C3000CE014196B0C02D843E844F8458886D8883
:100C40007E888F88988CEE24FF248701AA24BB24F9
:100C5000650140E050E060E070E0E0E0F0E0C101FC
:100C600081709070892BE9F0E60CF71C081D191DA6
:100C70009A01AB012A0D3B1D4C1D5D1D80E090E0EB
:100C8000A0E0B0E0E614F7040805190520F481E0BF
:100C900090E0A0E0B0E0BA01A901480F591F6A1F17
:100CA0007B1FAA0CBB1CCC1CDD1C97FE08C081E07E
:100CB00090E0A0E0B0E0A82AB92ACA2ADB2A31963F
:100CC000E032F10549F0660C771C881C991C56949B
:100CD000479437942794C3CFFA85EA892B893C89B6
:100CE0008B859C85280F391F2E5F3F4F17C0CA0187
:100CF00081709070892B61F016950795F794E794B1
:100D000080E090E0A0E0B0E8E82AF92A0A2B1B2B4B
:100D100076956795579547952F5F3F4F77FDE7CFBE
:100D20000CC0440F551F661F771F17FD4160EE0C66
:100D3000FF1C001F111F21503040403090E0590728
:100D400090E0690790E4790760F32B8F3C8FDB011B
:100D5000CA018F779070A070B07080349105A105A2
:100D6000B10561F447FD0AC0E114F1040105110564
:100D700029F0405C5F4F6F4F7F4F40781A8EFE170F
:100D800011F081E08A8F4D8F5E8F6F8F78A383E0A3
:100D9000898FCE0149960E942A08A096E2E10C9420
:100DA000B209A8E1B0E0E7EDF6E00C949E09698392
:100DB0007A838B839C832D833E834F835887B9E04E
:100DC000EB2EF12CEC0EFD1ECE010196B7010E9418
:100DD000FF088E010F5E1F4FCE010596B8010E94DD
:100DE000FF082985223008F47EC03989323010F49A
:100DF000B8017CC08A859A8989278A87243011F0B6
:100E0000223031F4231709F06EC066E970E06EC03D
:100E1000343039F41D861E861F86188A1C861B8670
:100E200004C0323021F484E08987B7015FC02B858C
:100E30003C858B899C89281B390B3C872B87ED844B
:100E4000FE840F851889AD88BE88CF88D88CEA14B7
:100E5000FB040C051D0540F4EE0CFF1C001F111FC8
:100E6000215030403C872B8720E030E040E050E0CC
:100E700080E090E0A0E0B0E460E070E0EA14FB0401
:100E80000C051D0540F0282B392B4A2B5B2BEA184B
:100E9000FB080C091D09B695A79597958795EE0C4B
:100EA000FF1C001F111F6F5F7F4F6F31710531F7FE
:100EB000DA01C9018F779070A070B070803491050D
:100EC000A105B10561F427FD0AC0E114F104010593
:100ED000110529F0205C3F4F4F4F5F4F20782D8741
:100EE0003E874F87588BBE01675F7F4FCB010E94C3
:100EF0002A086896EAE00C94BA09A8E0B0E0E3E8B2
:100F0000F7E00C949F099B01AC0183E08983DA012F
:100F1000C9018827B7FD83959927AA27BB27B82E33
:100F2000211531054105510519F482E089833AC044
:100F30008823A9F0203080E0380780E0480780E867
:100F4000580729F460E070E080E09FEC30C0EE24A8
:100F5000FF248701E21AF30A040B150B02C0790182
:100F60008A018EE1C82ED12CDC82CB82ED82FE82FA
:100F70000F831887C801B7010E94DB070197181675
:100F8000190684F4082E04C0EE0CFF1C001F111F6C
:100F90000A94D2F7ED82FE820F831887C81AD90A05
:100FA000DC82CB82BA82CE0101960E942A08289662
:100FB000E9E00C94BB09EF92FF920F931F937B0122
:100FC0008C0180E0E81680E0F80681E0080780E008
:100FD000180788F48FEFE816F1040105110531F0C8
:100FE00028F088E090E0A0E0B0E017C080E090E05A
:100FF000A0E0B0E012C080E0E81680E0F80680E0F3
:10100000080781E0180728F088E190E0A0E0B0E050
:1010100004C080E190E0A0E0B0E020E230E040E0F9
:1010200050E0281B390B4A0B5B0B04C01695079543
:10103000F794E7948A95D2F7F701E256FF4F808143
:10104000281B310941095109C9011F910F91FF90D6
:10105000EF900895DF92EF92FF920F931F93FC01A0
:10106000E480F58006811781D1808081823048F448
:1010700080E090E0A0E1B0E0E82AF92A0A2B1B2BDF
:10108000A5C0843009F49FC0823021F4EE24FF24EF
:10109000870105C0E114F1040105110519F4E0E030
:1010A000F0E096C0628173819FEF623879070CF09F
:1010B0005BC022E83FEF261B370B2A3131052CF0AD
:1010C00020E030E040E050E02AC0B801A701022E45
:1010D00004C076956795579547950A94D2F781E0B5
:1010E00090E0A0E0B0E004C0880F991FAA1FBB1FCA
:1010F0002A95D2F70197A109B1098E219F21A0233A
:10110000B1230097A105B10521F081E090E0A0E0B6
:10111000B0E09A01AB01282B392B4A2B5B2BDA016B
:10112000C9018F779070A070B07080349105A105CF
:10113000B10539F427FF09C0205C3F4F4F4F5F4F87
:1011400004C0215C3F4F4F4F5F4FE0E0F0E02030A4
:10115000A0E03A07A0E04A07A0E45A0710F0E1E057
:10116000F0E079018A0127C06038710564F5FB0160
:10117000E158FF4FD801C7018F779070A070B07011
:1011800080349105A105B10539F4E7FE0DC080E476
:1011900090E0A0E0B0E004C08FE390E0A0E0B0E019
:1011A000E80EF91E0A1F1B1F17FF05C016950795AD
:1011B000F794E794319687E016950795F794E794AE
:1011C0008A95D1F705C0EE24FF248701EFEFF0E008
:1011D0006E2F679566276795902F9F77D794DD24AC
:1011E000D7948E2F8695492F462B582F5D29B7010E
:1011F000CA011F910F91FF90EF90DF900895FC01BD
:10120000DB01408151812281622F6F7770E0221FC4
:101210002227221F9381892F880F822B282F30E0CD
:10122000991F9927991F11969C93119721153105A4
:10123000A9F5411551056105710511F482E037C02A
:1012400082E89FEF13969C938E9312979A01AB01BD
:1012500067E0220F331F441F551F6A95D1F783E0C3
:101260008C930DC0220F331F441F551F12968D9172
:101270009C911397019713969C938E93129720300D
:1012800080E0380780E0480780E4580758F3149658
:101290002D933D934D935C93179708952F3F310500
:1012A00079F4411551056105710519F484E08C93B9
:1012B000089564FF03C081E08C9312C01C9210C09B
:1012C0002F57304013963C932E93129783E08C93C4
:1012D00087E0440F551F661F771F8A95D1F770640A
:1012E00014964D935D936D937C9317970895629F29
:1012F000D001739FF001829FE00DF11D649FE00D0E
:10130000F11D929FF00D839FF00D749FF00D659F6E
:10131000F00D9927729FB00DE11DF91F639FB00D6D
:10132000E11DF91FBD01CF01112408952F923F92B5
:101330004F925F926F927F928F929F92AF92BF92E5
:10134000CF92DF92EF92FF920F931F93CF93DF9391
:10135000CDB7DEB7CA1BDB0B0FB6F894DEBF0FBEEE
:10136000CDBF09942A88398848885F846E847D843B
:101370008C849B84AA84B984C884DF80EE80FD803D
:101380000C811B81AA81B981CE0FD11D0FB6F894B3
:10139000DEBF0FBECDBFED010895EF92FF920F9318
:1013A0001F93F22FF02E47FD02C0E4E001C0E4E1FC
:1013B000242F332727FD309537FF03C03095219523
:1013C0003F4F4F2D512F0F2FEE2E0E94F60B8F2DDA
:1013D000912F1F910F91FF90EF900895FB01DC0179
:1013E00001900D920020E1F70895AEE0B0E0EBEF40
:1013F000F9E00C94A4090D891E8986E08C831A8378
:1014000009838FEF9FE79E838D839E01275E3F4F69
:10141000CE0101966F89788DA9010E94190A2F814A
:101420003885020F131FF80110822E96E4E00C9409
:10143000C009ABE0B0E0EFE1FAE00C9496093C01A2
:101440002B015A01FC0117821682838181FD03C0A2
:101450006FEF7FEFC6C19AE0892E1E010894211C10
:10146000311CF3012381F20123FD859123FF81913A
:101470002F01882309F4B2C1853239F423FD859107
:1014800023FF81912F01853229F490E0B3010E945E
:10149000460EE7CF982FFF24EE249924FFE1FF1595
:1014A000D0F09B3269F09C3228F4903259F093329C
:1014B00091F40EC09D3249F0903369F441E024C0AC
:1014C00052E0F52A84E0F82A28C098E0F92A25C0DD
:1014D000E0E1FE2A22C0F7FC29C0892F80538A3020
:1014E00070F4F6FE05C0989C902C1124980E15C03F
:1014F000E89CE02C1124E80EF0E2FF2A0EC09E3298
:1015000029F4F6FC6BC140E4F42A07C09C3619F4B8
:1015100050E8F52A02C0983649F4F20123FD95916E
:1015200023FF91912F01992309F0B8CF892F85547A
:10153000833018F08052833038F444E050E0A40E39
:10154000B51E5FE359830FC0933631F0933779F0BE
:10155000933509F056C020C0F5018081898342E0AF
:1015600050E0A40EB51E610101E010E012C0F501CB
:10157000C080D180F6FC03C06FEF7FEF02C0692D01
:1015800070E042E050E0A40EB51EC6010E943B0E82
:101590008C015FE7F52214C0F501C080D180F6FC14
:1015A00003C06FEF7FEF02C0692D70E042E050E0B2
:1015B000A40EB51EC6010E94300E8C0150E8F52A1B
:1015C000F3FE07C01AC080E290E0B3010E94460E0D
:1015D000EA948E2D90E008171907A8F30EC0F601C3
:1015E000F7FC8591F7FE81916F0190E0B3010E94B5
:1015F000460EE110EA94015010400115110579F7EB
:10160000EAC0943611F0993669F5F7FE08C0F50185
:10161000208131814281538184E090E00AC0F5014C
:10162000808191819C01442737FD4095542F82E0B1
:1016300090E0A80EB91E9FE6F92257FF09C0509509
:101640004095309521953F4F4F4F5F4FE0E8FE2A80
:10165000CA01B901A1012AE030E00E94720ED82E21
:10166000D21840C0953729F41F2D1F7E2AE030E0A4
:101670001DC01F2D197F9F3661F0903720F49835DB
:1016800009F0ACC00FC0903739F0983709F0A6C008
:1016900004C028E030E00AC0106114FD146020E1AD
:1016A00030E004C014FD166020E132E017FF08C0EE
:1016B000F501608171818281938144E050E008C02E
:1016C000F50180819181BC0180E090E042E050E032
:1016D000A40EB51EA1010E94720ED82ED2188FE75B
:1016E000F82EF122F6FE0BC05EEFF522D91438F485
:1016F000F4FE07C0F2FC05C08FEEF82202C01D2DDB
:1017000001C0192DF4FE0DC0FE01ED0DF11D80810B
:10171000803319F499EEF92208C01F5FF2FE05C06C
:1017200003C08F2D867809F01F5F0F2DF3FC14C0C6
:10173000F0FE0FC01E1510F09D2C0BC09D2C9E0CB2
:10174000911A1E2D06C080E290E0B3010E94460E61
:101750001F5F1E15C0F304C01E1510F4E11A01C06E
:10176000EE2404FF0FC080E390E0B3010E94460E18
:1017700002FF1DC001FD03C088E790E00EC088E5B0
:1017800090E00BC0802F867891F001FF02C08BE2C1
:1017900001C080E2F7FC8DE290E0B3010E94460EAA
:1017A00006C080E390E0B3010E94460E9A94D914DB
:1017B000C0F3DA94F101ED0DF11D808190E0B301E9
:1017C0000E94460EDD20A9F706C080E290E0B3013A
:1017D0000E94460EEA94EE20C1F743CEF3016681E3
:1017E0007781CB012B96E2E10C94B209A9E0B0E03D
:1017F000ECEFFBE00C949A096A01122FA02EBE2C8C
:101800002BE3201718F42CE3922E02C0902E939411
:10181000AE014F5F5F4F27E0092D0E94580DBC01BC
:101820008981E82EFF24C70189709070019711F417
:10183000ADE209C0B1FE02C0ABE205C0B0FC02C01F
:10184000A0E001C0A0E2E3FE3BC0AA2311F423E024
:1018500001C024E0211710F020E002C0121B212F4C
:10186000EB2CB4FE02C0322F0AC0F601322F80E208
:1018700002C0819331503323E1F7C20ED11CAA2359
:1018800019F0F601A1936F01F6013196E2FE05C051
:101890009EE4D6019C9381E404C09EE6D6019C930D
:1018A00081E611968C9391833296DF01832F90E22B
:1018B00002C09D9381508823E1F7E30FF11D40C0E2
:1018C000E2FE42C0AA2311F423E001C024E0211764
:1018D00010F020E002C0121B212FEB2CB4FE02C03E
:1018E000922F0AC0F601922F80E202C0819391509C
:1018F0009923E1F7C20ED11CAA2319F0F601A19396
:101900006F01F6013196E2FE08C089E4D6018C939E
:101910008EE411968C9386E407C089E6D6018C93F9
:101920008EE611968C9386E681833296DF01892FAD
:1019300020E202C02D9381508823E1F7E90FF11DC9
:1019400010822EEF3FEFAFC0161617061CF041E0D5
:1019500050E003C0AB014F5F5F4FAA2019F480E055
:1019600090E003C08A2D90E0019620E030E0AA23A9
:1019700011F021E030E0240F351F280F391F812F8F
:1019800090E02817390714F020E002C0121B212F25
:101990004B2D50E0CA0180719070B4FC0DC0B3FCB7
:1019A0000BC0F601322F40E202C041933150332385
:1019B000E1F7C20ED11C01C0322FAA2319F0F601A3
:1019C000A1936F01892B11F0132F0AC0F601132F79
:1019D00080E302C0819311501123E1F7C30ED11CA3
:1019E000092D060FBA8090E1892E912C8E209F2020
:1019F000E4FE04C0F1E3BF1609F40150101614F020
:101A000001E003C0093008F008E09B0177FF02C045
:101A100020E030E0CB010196821B930BFE01319652
:101A2000E80FF91F8EE2F82E3B01601A71088A2D2B
:101A300090E044275527481B590B8FEF2F3F38075D
:101A400019F4D601FD926D01621773072CF062162E
:101A5000730614F4808101C080E321503040319638
:101A60002417350724F0D6018D936D01E6CF261794
:101A7000370749F4B5E3BB1528F0BB1621F48114F0
:101A8000910409F481E3F6018193D601812F90E25C
:101A900002C09C93815011968823D9F7E10FF11D64
:101AA000108220E030E0C9012996EEE00C94B609DE
:101AB000283008F027E03327DA01990F311D87FD20
:101AC000916000966105710539F432602E5F3D9397
:101AD00030E32A95E1F708959F3F30F08038710593
:101AE000610509F03C5F3C5F3D93913008F08068F0
:101AF000911DDF93CF931F930F93FF92EF92192FB6
:101B0000987F9695E92F96959695E90FFF27E255D0
:101B1000FF4F99273327EE24FF24A701E701059003
:101B20000894079428F4360FE71EF81E491F511D2C
:101B3000660F771F881F991F0694A1F705900794D9
:101B400028F4E70EF81E491F561FC11D770F881F86
:101B5000991F661F0694A1F70590079428F4F80EC4
:101B6000491F561FC71FD11D880F991F661F771F5A
:101B70000694A1F70590079420F4490F561FC71F3C
:101B8000D81F990F661F771F881F0694A9F78491A5
:101B90001095177041F0D695C79557954795F794CE
:101BA000E7941A95C1F7E4E5F0E068941590159173
:101BB00035916591959105907FE27395E118F10A51
:101BC000430B560BC90BD009C0F7E10CF11E431FA4
:101BD000561FC91FD01D7EF4703311F48A95E6CFCD
:101BE000E894015030F0080F0AF40027021708F4B7
:101BF000202F2395022F7A3328F079E37D932A95BD
:101C0000E9F710C07D932A9589F606949795679514
:101C1000379517951794E118F10A430B560BC90B2A
:101C2000D00998F023957E9173957A3308F070E38C
:101C30007C932013B8F77E9170617D9330F083958B
:101C400071E37D9370E32A95E1F71124EF90FF9003
:101C50000F911F91CF91DF91992787FD909508955E
:101C6000FC010590615070400110D8F78095909567
:101C70008E0F9F1F0895FC0161507040019001106C
:101C8000D8F7809590958E0F9F1F08950F931F93FF
:101C9000CF93DF938C01EB018B8181FF1BC082FF0F
:101CA0000DC02E813F818C819D812817390764F4F6
:101CB000E881F9810193F983E88306C0E885F98515
:101CC000802F0995892B31F48E819F8101969F8306
:101CD0008E8302C00FEF1FEFC801DF91CF911F91DC
:101CE0000F910895FA01AA27283051F1203181F18E
:101CF000E8946F936E7F6E5F7F4F8F4F9F4FAF4F14
:101D0000B1E03ED0B4E03CD0670F781F891F9A1F26
:101D1000A11D680F791F8A1F911DA11D6A0F711DDA
:101D2000811D911DA11D20D009F468943F912AE0E6
:101D3000269F11243019305D3193DEF6CF010895CE
:101D4000462F4770405D4193B3E00FD0C9F7F6CFFF
:101D5000462F4F70405D4A3318F0495D31FD4052C7
:101D6000419302D0A9F7EACFB4E0A695979587955D
:101D700077956795BA95C9F700976105710508953C
:101D80009B01AC010A2E06945795479537952795E8
:101D9000BA95C9F7620F731F841F951FA01D089580
:041DA000F894FFCFE5
:101DA4004D792063616C63756C61746F7200546863
:101DB40075204E67616E003000256C6400256C64EC
:101DC4002563256C64000105090D02060A0E03074C
:101DD4000B0F04080C1000000000000000000001BC
:101DE40002020303030304040404040404040505B5
:101DF400050505050505050505050505050506068D
:101E0400060606060606060606060606060606066E
:101E1400060606060606060606060606060607075C
:101E2400070707070707070707070707070707073E
:101E3400070707070707070707070707070707072E
:101E4400070707070707070707070707070707071E
:101E5400070707070707070707070707070708080C
:101E640008080808080808080808080808080808EE
:101E740008080808080808080808080808080808DE
:101E840008080808080808080808080808080808CE
:101E940008080808080808080808080808080808BE
:101EA40008080808080808080808080808080808AE
:101EB400080808080808080808080808080808089E
:101EC400080808080808080808080808080808088E
:0E1ED400080808080808080808080808080890
:00000001FF
